{
  "_format": "hh-sol-artifact-1",
  "contractName": "GatingRules",
  "sourceName": "contracts/GatingRules.sol",
  "abi": [
    {
      "inputs": [],
      "stateMutability": "nonpayable",
      "type": "constructor"
    },
    {
      "inputs": [
        {
          "components": [
            {
              "internalType": "address",
              "name": "token_contract_address",
              "type": "address"
            }
          ],
          "internalType": "struct GatingRules.RuleERC721",
          "name": "_rule",
          "type": "tuple"
        },
        {
          "internalType": "address",
          "name": "user",
          "type": "address"
        }
      ],
      "name": "checkRuleErc721",
      "outputs": [
        {
          "internalType": "bool",
          "name": "",
          "type": "bool"
        }
      ],
      "stateMutability": "view",
      "type": "function"
    },
    {
      "inputs": [
        {
          "internalType": "string",
          "name": "dest_url",
          "type": "string"
        },
        {
          "components": [
            {
              "internalType": "address",
              "name": "token_contract_address",
              "type": "address"
            }
          ],
          "internalType": "struct GatingRules.RuleERC721[]",
          "name": "new_rules",
          "type": "tuple[]"
        }
      ],
      "name": "createLock",
      "outputs": [
        {
          "internalType": "uint256",
          "name": "",
          "type": "uint256"
        }
      ],
      "stateMutability": "nonpayable",
      "type": "function"
    },
    {
      "inputs": [],
      "name": "fetchAllLockIds",
      "outputs": [
        {
          "internalType": "uint256[]",
          "name": "",
          "type": "uint256[]"
        }
      ],
      "stateMutability": "view",
      "type": "function"
    },
    {
      "inputs": [],
      "name": "fetchAllRules",
      "outputs": [
        {
          "internalType": "address[]",
          "name": "",
          "type": "address[]"
        }
      ],
      "stateMutability": "view",
      "type": "function"
    },
    {
      "inputs": [
        {
          "internalType": "address",
          "name": "contractAddress",
          "type": "address"
        },
        {
          "internalType": "address",
          "name": "user",
          "type": "address"
        }
      ],
      "name": "getErc721Balance",
      "outputs": [
        {
          "internalType": "uint256",
          "name": "",
          "type": "uint256"
        }
      ],
      "stateMutability": "view",
      "type": "function"
    },
    {
      "inputs": [],
      "name": "getLockCounter",
      "outputs": [
        {
          "internalType": "uint256",
          "name": "",
          "type": "uint256"
        }
      ],
      "stateMutability": "view",
      "type": "function"
    },
    {
      "inputs": [
        {
          "internalType": "address",
          "name": "user",
          "type": "address"
        },
        {
          "internalType": "uint256",
          "name": "lockID",
          "type": "uint256"
        }
      ],
      "name": "isValid",
      "outputs": [
        {
          "internalType": "bool",
          "name": "",
          "type": "bool"
        },
        {
          "internalType": "string",
          "name": "",
          "type": "string"
        }
      ],
      "stateMutability": "view",
      "type": "function"
    },
    {
      "inputs": [
        {
          "internalType": "uint256",
          "name": "",
          "type": "uint256"
        }
      ],
      "name": "lockIds",
      "outputs": [
        {
          "internalType": "uint256",
          "name": "",
          "type": "uint256"
        }
      ],
      "stateMutability": "view",
      "type": "function"
    },
    {
      "inputs": [
        {
          "internalType": "uint256",
          "name": "",
          "type": "uint256"
        },
        {
          "internalType": "uint256",
          "name": "",
          "type": "uint256"
        }
      ],
      "name": "lockToRules",
      "outputs": [
        {
          "internalType": "address",
          "name": "token_contract_address",
          "type": "address"
        }
      ],
      "stateMutability": "view",
      "type": "function"
    },
    {
      "inputs": [
        {
          "internalType": "uint256",
          "name": "",
          "type": "uint256"
        }
      ],
      "name": "lockToUrl",
      "outputs": [
        {
          "internalType": "string",
          "name": "",
          "type": "string"
        }
      ],
      "stateMutability": "view",
      "type": "function"
    }
  ],
  "bytecode": "0x608060405260016000553480156200001657600080fd5b50620000626040518060400160405280600e81526020017f596f20696d207475726e742075700000000000000000000000000000000000008152506200006860201b62000b5b1760201c565b620001fc565b62000108816040516024016200007f919062000175565b6040516020818303038152906040527f41304fac000000000000000000000000000000000000000000000000000000007bffffffffffffffffffffffffffffffffffffffffffffffffffffffff19166020820180517bffffffffffffffffffffffffffffffffffffffffffffffffffffffff83818316178352505050506200010b60201b60201c565b50565b60008151905060006a636f6e736f6c652e6c6f679050602083016000808483855afa5050505050565b6000620001418262000199565b6200014d8185620001a4565b93506200015f818560208601620001b5565b6200016a81620001eb565b840191505092915050565b6000602082019050818103600083015262000191818462000134565b905092915050565b600081519050919050565b600082825260208201905092915050565b60005b83811015620001d5578082015181840152602081019050620001b8565b83811115620001e5576000848401525b50505050565b6000601f19601f8301169050919050565b611723806200020c6000396000f3fe608060405234801561001057600080fd5b506004361061009e5760003560e01c80635f8738df116100665780635f8738df1461018257806360e2120c146101b2578063850d7cc9146101d0578063aa7c9644146101ee578063b8a1aa0a1461021e5761009e565b806301cda903146100a3578063254f387c146100d3578063389be4421461010357806359647984146101335780635c30775514610164575b600080fd5b6100bd60048036038101906100b8919061105a565b61024e565b6040516100ca91906112f3565b60405180910390f35b6100ed60048036038101906100e89190610f76565b610274565b6040516100fa9190611390565b60405180910390f35b61011d600480360381019061011891906110e8565b610312565b60405161012a9190611294565b60405180910390f35b61014d60048036038101906101489190610fb2565b610369565b60405161015b92919061130e565b60405180910390f35b61016c610567565b60405161017991906112d1565b60405180910390f35b61019c60048036038101906101979190610fee565b6105fd565b6040516101a99190611390565b60405180910390f35b6101ba6107f5565b6040516101c791906112af565b60405180910390f35b6101d8610a8e565b6040516101e59190611390565b60405180910390f35b61020860048036038101906102039190611096565b610a97565b6040516102159190611390565b60405180910390f35b61023860048036038101906102339190611096565b610abb565b604051610245919061133e565b60405180910390f35b6000808360000151905060006102648285610274565b9050600081119250505092915050565b60008083905060008173ffffffffffffffffffffffffffffffffffffffff166370a08231856040518263ffffffff1660e01b81526004016102b59190611294565b60206040518083038186803b1580156102cd57600080fd5b505afa1580156102e1573d6000803e3d6000fd5b505050506040513d601f19601f8201168201806040525081019061030591906110bf565b9050809250505092915050565b6001602052816000526040600020818154811061032e57600080fd5b90600052602060002001600091509150508060000160009054906101000a900473ffffffffffffffffffffffffffffffffffffffff16905081565b60006060600073ffffffffffffffffffffffffffffffffffffffff168473ffffffffffffffffffffffffffffffffffffffff1614156103a757600080fd5b60008314156103b557600080fd5b600060016000858152602001908152602001600020805480602002602001604051908101604052809291908181526020016000905b8282101561046e578382906000526020600020016040518060200160405290816000820160009054906101000a900473ffffffffffffffffffffffffffffffffffffffff1673ffffffffffffffffffffffffffffffffffffffff1673ffffffffffffffffffffffffffffffffffffffff1681525050815260200190600101906103ea565b50505050905060005b81518110156105485760008282815181106104bb577f4e487b7100000000000000000000000000000000000000000000000000000000600052603260045260246000fd5b602002602001015190506105086040518060400160405280601e81526020017f72756c652e746f6b656e5f636f6e74726163745f61646472657373203d2000008152508260000151610bf4565b610512818861024e565b6105345760006040518060200160405280600081525094509450505050610560565b508080610540906115d8565b915050610477565b50600061055485610c90565b90506001819350935050505b9250929050565b60606105a76040518060400160405280601581526020017f4665746368696e6720616c6c206c6f636b206964730000000000000000000000815250610b5b565b60038054806020026020016040519081016040528092919081815260200182805480156105f357602002820191906000526020600020905b8154815260200190600101908083116105df575b5050505050905090565b600061063d6040518060400160405280600d81526020017f4372656174696e67206c6f636b00000000000000000000000000000000000000815250610b5b565b60008351101561064c57600080fd5b60008251101561065b57600080fd5b60008054905060005b835181101561074257600160008381526020019081526020016000208482815181106106b9577f4e487b7100000000000000000000000000000000000000000000000000000000600052603260045260246000fd5b60200260200101519080600181540180825580915050600190039060005260206000200160009091909190915060008201518160000160006101000a81548173ffffffffffffffffffffffffffffffffffffffff021916908373ffffffffffffffffffffffffffffffffffffffff1602179055505050808061073a906115d8565b915050610664565b508360026000838152602001908152602001600020908051906020019061076a929190610d5e565b5060038190806001815401808255809150506001900390600052602060002001600090919091909150556107d26040518060400160405280601a81526020017f63726561746564206e6577206c6f636b20776974682069643a20000000000000815250610b5b565b60016000808282546107e491906114c6565b925050819055508091505092915050565b60606000600a67ffffffffffffffff81111561083a577f4e487b7100000000000000000000000000000000000000000000000000000000600052604160045260246000fd5b6040519080825280602002602001820160405280156108685781602001602082028036833780820191505090505b5090506000805b600380549050811015610a85576000600382815481106108b8577f4e487b7100000000000000000000000000000000000000000000000000000000600052603260045260246000fd5b90600052602060002001549050600060016000838152602001908152602001600020805480602002602001604051908101604052809291908181526020016000905b8282101561097e578382906000526020600020016040518060200160405290816000820160009054906101000a900473ffffffffffffffffffffffffffffffffffffffff1673ffffffffffffffffffffffffffffffffffffffff1673ffffffffffffffffffffffffffffffffffffffff1681525050815260200190600101906108fa565b50505050905060005b8151811015610a6f5760008282815181106109cb577f4e487b7100000000000000000000000000000000000000000000000000000000600052603260045260246000fd5b602002602001015190508060000151878781518110610a13577f4e487b7100000000000000000000000000000000000000000000000000000000600052603260045260246000fd5b602002602001019073ffffffffffffffffffffffffffffffffffffffff16908173ffffffffffffffffffffffffffffffffffffffff16815250508580610a58906115d8565b965050508080610a67906115d8565b915050610987565b5050508080610a7d906115d8565b91505061086f565b50819250505090565b60008054905090565b60038181548110610aa757600080fd5b906000526020600020016000915090505481565b60026020528060005260406000206000915090508054610ada906115a6565b80601f0160208091040260200160405190810160405280929190818152602001828054610b06906115a6565b8015610b535780601f10610b2857610100808354040283529160200191610b53565b820191906000526020600020905b815481529060010190602001808311610b3657829003601f168201915b505050505081565b610bf181604051602401610b6f919061133e565b6040516020818303038152906040527f41304fac000000000000000000000000000000000000000000000000000000007bffffffffffffffffffffffffffffffffffffffffffffffffffffffff19166020820180517bffffffffffffffffffffffffffffffffffffffffffffffffffffffff8381831617835250505050610d35565b50565b610c8c8282604051602401610c0a929190611360565b6040516020818303038152906040527f319af333000000000000000000000000000000000000000000000000000000007bffffffffffffffffffffffffffffffffffffffffffffffffffffffff19166020820180517bffffffffffffffffffffffffffffffffffffffffffffffffffffffff8381831617835250505050610d35565b5050565b6060600260008381526020019081526020016000208054610cb0906115a6565b80601f0160208091040260200160405190810160405280929190818152602001828054610cdc906115a6565b8015610d295780601f10610cfe57610100808354040283529160200191610d29565b820191906000526020600020905b815481529060010190602001808311610d0c57829003601f168201915b50505050509050919050565b60008151905060006a636f6e736f6c652e6c6f679050602083016000808483855afa5050505050565b828054610d6a906115a6565b90600052602060002090601f016020900481019282610d8c5760008555610dd3565b82601f10610da557805160ff1916838001178555610dd3565b82800160010185558215610dd3579182015b82811115610dd2578251825591602001919060010190610db7565b5b509050610de09190610de4565b5090565b5b80821115610dfd576000816000905550600101610de5565b5090565b6000610e14610e0f846113dc565b6113ab565b90508083825260208201905082856020860282011115610e3357600080fd5b60005b85811015610e635781610e498882610f14565b845260208401935060208301925050600181019050610e36565b5050509392505050565b6000610e80610e7b84611408565b6113ab565b905082815260208101848484011115610e9857600080fd5b610ea3848285611564565b509392505050565b600081359050610eba816116bf565b92915050565b600082601f830112610ed157600080fd5b8135610ee1848260208601610e01565b91505092915050565b600082601f830112610efb57600080fd5b8135610f0b848260208601610e6d565b91505092915050565b600060208284031215610f2657600080fd5b610f3060206113ab565b90506000610f4084828501610eab565b60008301525092915050565b600081359050610f5b816116d6565b92915050565b600081519050610f70816116d6565b92915050565b60008060408385031215610f8957600080fd5b6000610f9785828601610eab565b9250506020610fa885828601610eab565b9150509250929050565b60008060408385031215610fc557600080fd5b6000610fd385828601610eab565b9250506020610fe485828601610f4c565b9150509250929050565b6000806040838503121561100157600080fd5b600083013567ffffffffffffffff81111561101b57600080fd5b61102785828601610eea565b925050602083013567ffffffffffffffff81111561104457600080fd5b61105085828601610ec0565b9150509250929050565b6000806040838503121561106d57600080fd5b600061107b85828601610f14565b925050602061108c85828601610eab565b9150509250929050565b6000602082840312156110a857600080fd5b60006110b684828501610f4c565b91505092915050565b6000602082840312156110d157600080fd5b60006110df84828501610f61565b91505092915050565b600080604083850312156110fb57600080fd5b600061110985828601610f4c565b925050602061111a85828601610f4c565b9150509250929050565b60006111308383611154565b60208301905092915050565b60006111488383611276565b60208301905092915050565b61115d8161151c565b82525050565b61116c8161151c565b82525050565b600061117d82611458565b6111878185611493565b935061119283611438565b8060005b838110156111c35781516111aa8882611124565b97506111b583611479565b925050600181019050611196565b5085935050505092915050565b60006111db82611463565b6111e581856114a4565b93506111f083611448565b8060005b83811015611221578151611208888261113c565b975061121383611486565b9250506001810190506111f4565b5085935050505092915050565b6112378161152e565b82525050565b60006112488261146e565b61125281856114b5565b9350611262818560208601611573565b61126b816116ae565b840191505092915050565b61127f8161155a565b82525050565b61128e8161155a565b82525050565b60006020820190506112a96000830184611163565b92915050565b600060208201905081810360008301526112c98184611172565b905092915050565b600060208201905081810360008301526112eb81846111d0565b905092915050565b6000602082019050611308600083018461122e565b92915050565b6000604082019050611323600083018561122e565b8181036020830152611335818461123d565b90509392505050565b60006020820190508181036000830152611358818461123d565b905092915050565b6000604082019050818103600083015261137a818561123d565b90506113896020830184611163565b9392505050565b60006020820190506113a56000830184611285565b92915050565b6000604051905081810181811067ffffffffffffffff821117156113d2576113d161167f565b5b8060405250919050565b600067ffffffffffffffff8211156113f7576113f661167f565b5b602082029050602081019050919050565b600067ffffffffffffffff8211156114235761142261167f565b5b601f19601f8301169050602081019050919050565b6000819050602082019050919050565b6000819050602082019050919050565b600081519050919050565b600081519050919050565b600081519050919050565b6000602082019050919050565b6000602082019050919050565b600082825260208201905092915050565b600082825260208201905092915050565b600082825260208201905092915050565b60006114d18261155a565b91506114dc8361155a565b9250827fffffffffffffffffffffffffffffffffffffffffffffffffffffffffffffffff0382111561151157611510611621565b5b828201905092915050565b60006115278261153a565b9050919050565b60008115159050919050565b600073ffffffffffffffffffffffffffffffffffffffff82169050919050565b6000819050919050565b82818337600083830152505050565b60005b83811015611591578082015181840152602081019050611576565b838111156115a0576000848401525b50505050565b600060028204905060018216806115be57607f821691505b602082108114156115d2576115d1611650565b5b50919050565b60006115e38261155a565b91507fffffffffffffffffffffffffffffffffffffffffffffffffffffffffffffffff82141561161657611615611621565b5b600182019050919050565b7f4e487b7100000000000000000000000000000000000000000000000000000000600052601160045260246000fd5b7f4e487b7100000000000000000000000000000000000000000000000000000000600052602260045260246000fd5b7f4e487b7100000000000000000000000000000000000000000000000000000000600052604160045260246000fd5b6000601f19601f8301169050919050565b6116c88161151c565b81146116d357600080fd5b50565b6116df8161155a565b81146116ea57600080fd5b5056fea264697066735822122013649fcf84e7b01a9a65f4369c9b37c195b9d6c3da5adbf93c9b8df6d03164e964736f6c63430008000033",
  "linkReferences": {},
  "deployedLinkReferences": {}
}