{
    "_format": "hh-sol-artifact-1",
    "contractName": "GatingRules",
    "sourceName": "contracts/GatingRules.sol",
    "abi": [
        {
            "inputs": [],
            "stateMutability": "nonpayable",
            "type": "constructor"
        },
        {
            "inputs": [
                {
                    "internalType": "bytes32",
                    "name": "_hash",
                    "type": "bytes32"
                },
                {
                    "internalType": "address",
                    "name": "addr",
                    "type": "address"
                },
                {
                    "internalType": "uint256",
                    "name": "count",
                    "type": "uint256"
                }
            ],
            "name": "addRule",
            "outputs": [],
            "stateMutability": "nonpayable",
            "type": "function"
        },
        {
            "inputs": [
                {
                    "internalType": "bytes32",
                    "name": "_hash",
                    "type": "bytes32"
                }
            ],
            "name": "fetchRule",
            "outputs": [
                {
                    "components": [
                        {
                            "internalType": "address",
                            "name": "token_contract_address",
                            "type": "address"
                        },
                        {
                            "internalType": "uint256",
                            "name": "token_count",
                            "type": "uint256"
                        }
                    ],
                    "internalType": "struct GatingRules.Rule",
                    "name": "",
                    "type": "tuple"
                }
            ],
            "stateMutability": "view",
            "type": "function"
        },
        {
            "inputs": [
                {
                    "internalType": "bytes32",
                    "name": "",
                    "type": "bytes32"
                }
            ],
            "name": "rules",
            "outputs": [
                {
                    "internalType": "address",
                    "name": "token_contract_address",
                    "type": "address"
                },
                {
                    "internalType": "uint256",
                    "name": "token_count",
                    "type": "uint256"
                }
            ],
            "stateMutability": "view",
            "type": "function"
        }
    ],
    "bytecode": "0x608060405234801561001057600080fd5b506100596040518060400160405280600e81526020017f596f20696d207475726e7420757000000000000000000000000000000000000081525061005e60201b6102061760201c565b6101e1565b6100fa81604051602401610072919061015f565b6040516020818303038152906040527f41304fac000000000000000000000000000000000000000000000000000000007bffffffffffffffffffffffffffffffffffffffffffffffffffffffff19166020820180517bffffffffffffffffffffffffffffffffffffffffffffffffffffffff83818316178352505050506100fd60201b60201c565b50565b60008151905060006a636f6e736f6c652e6c6f679050602083016000808483855afa5050505050565b600061013182610181565b61013b818561018c565b935061014b81856020860161019d565b610154816101d0565b840191505092915050565b600060208201905081810360008301526101798184610126565b905092915050565b600081519050919050565b600082825260208201905092915050565b60005b838110156101bb5780820151818401526020810190506101a0565b838111156101ca576000848401525b50505050565b6000601f19601f8301169050919050565b6105da806101f06000396000f3fe608060405234801561001057600080fd5b50600436106100415760003560e01c806318b11f0514610046578063216b857714610076578063b318b806146100a7575b600080fd5b610060600480360381019061005b9190610337565b6100c3565b60405161006d919061049e565b60405180910390f35b610090600480360381019061008b9190610337565b61014f565b60405161009e929190610453565b60405180910390f35b6100c160048036038101906100bc9190610360565b610193565b005b6100cb6102c8565b6000808381526020019081526020016000206040518060400160405290816000820160009054906101000a900473ffffffffffffffffffffffffffffffffffffffff1673ffffffffffffffffffffffffffffffffffffffff1673ffffffffffffffffffffffffffffffffffffffff1681526020016001820154815250509050919050565b60006020528060005260406000206000915090508060000160009054906101000a900473ffffffffffffffffffffffffffffffffffffffff16908060010154905082565b8160008085815260200190815260200160002060000160006101000a81548173ffffffffffffffffffffffffffffffffffffffff021916908373ffffffffffffffffffffffffffffffffffffffff1602179055508060008085815260200190815260200160002060010181905550505050565b61029c8160405160240161021a919061047c565b6040516020818303038152906040527f41304fac000000000000000000000000000000000000000000000000000000007bffffffffffffffffffffffffffffffffffffffffffffffffffffffff19166020820180517bffffffffffffffffffffffffffffffffffffffffffffffffffffffff838183161783525050505061029f565b50565b60008151905060006a636f6e736f6c652e6c6f679050602083016000808483855afa5050505050565b6040518060400160405280600073ffffffffffffffffffffffffffffffffffffffff168152602001600081525090565b6000813590506103078161055f565b92915050565b60008135905061031c81610576565b92915050565b6000813590506103318161058d565b92915050565b60006020828403121561034957600080fd5b60006103578482850161030d565b91505092915050565b60008060006060848603121561037557600080fd5b60006103838682870161030d565b9350506020610394868287016102f8565b92505060406103a586828701610322565b9150509250925092565b6103b8816104d5565b82525050565b6103c7816104d5565b82525050565b60006103d8826104b9565b6103e281856104c4565b93506103f281856020860161051b565b6103fb8161054e565b840191505092915050565b60408201600082015161041c60008501826103af565b50602082015161042f6020850182610435565b50505050565b61043e81610511565b82525050565b61044d81610511565b82525050565b600060408201905061046860008301856103be565b6104756020830184610444565b9392505050565b6000602082019050818103600083015261049681846103cd565b905092915050565b60006040820190506104b36000830184610406565b92915050565b600081519050919050565b600082825260208201905092915050565b60006104e0826104f1565b9050919050565b6000819050919050565b600073ffffffffffffffffffffffffffffffffffffffff82169050919050565b6000819050919050565b60005b8381101561053957808201518184015260208101905061051e565b83811115610548576000848401525b50505050565b6000601f19601f8301169050919050565b610568816104d5565b811461057357600080fd5b50565b61057f816104e7565b811461058a57600080fd5b50565b61059681610511565b81146105a157600080fd5b5056fea2646970667358221220683e530959b2385d813191d46a25f3821a399c374a56a06ff6e6e8ad57c6a56d64736f6c63430008000033",
    "linkReferences": {},
    "deployedLinkReferences": {}
}