{
  "_format": "hh-sol-artifact-1",
  "contractName": "GatingRules",
  "sourceName": "contracts/GatingRules.sol",
  "abi": [
    {
      "inputs": [],
      "stateMutability": "nonpayable",
      "type": "constructor"
    },
    {
      "inputs": [
        {
          "internalType": "bytes32",
          "name": "_hash",
          "type": "bytes32"
        },
        {
          "internalType": "address",
          "name": "addr",
          "type": "address"
        },
        {
          "internalType": "uint256",
          "name": "count",
          "type": "uint256"
        }
      ],
      "name": "createLock",
      "outputs": [],
      "stateMutability": "nonpayable",
      "type": "function"
    },
    {
      "inputs": [
        {
          "internalType": "bytes32",
          "name": "_hash",
          "type": "bytes32"
        }
      ],
      "name": "fetchRule",
      "outputs": [
        {
          "components": [
            {
              "internalType": "address",
              "name": "token_contract_address",
              "type": "address"
            },
            {
              "internalType": "uint256",
              "name": "token_count",
              "type": "uint256"
            }
          ],
          "internalType": "struct GatingRules.Rule",
          "name": "",
          "type": "tuple"
        }
      ],
      "stateMutability": "view",
      "type": "function"
    },
    {
      "inputs": [
        {
          "internalType": "address",
          "name": "user",
          "type": "address"
        },
        {
          "internalType": "uint256",
          "name": "lockID",
          "type": "uint256"
        }
      ],
      "name": "isValid",
      "outputs": [
        {
          "internalType": "bool",
          "name": "",
          "type": "bool"
        }
      ],
      "stateMutability": "pure",
      "type": "function"
    },
    {
      "inputs": [
        {
          "internalType": "bytes32",
          "name": "",
          "type": "bytes32"
        }
      ],
      "name": "rules",
      "outputs": [
        {
          "internalType": "address",
          "name": "token_contract_address",
          "type": "address"
        },
        {
          "internalType": "uint256",
          "name": "token_count",
          "type": "uint256"
        }
      ],
      "stateMutability": "view",
      "type": "function"
    }
  ],
  "bytecode": "0x608060405234801561001057600080fd5b506100596040518060400160405280600e81526020017f596f20696d207475726e7420757000000000000000000000000000000000000081525061005e60201b6102941760201c565b6101e1565b6100fa81604051602401610072919061015f565b6040516020818303038152906040527f41304fac000000000000000000000000000000000000000000000000000000007bffffffffffffffffffffffffffffffffffffffffffffffffffffffff19166020820180517bffffffffffffffffffffffffffffffffffffffffffffffffffffffff83818316178352505050506100fd60201b60201c565b50565b60008151905060006a636f6e736f6c652e6c6f679050602083016000808483855afa5050505050565b600061013182610181565b61013b818561018c565b935061014b81856020860161019d565b610154816101d0565b840191505092915050565b600060208201905081810360008301526101798184610126565b905092915050565b600081519050919050565b600082825260208201905092915050565b60005b838110156101bb5780820151818401526020810190506101a0565b838111156101ca576000848401525b50505050565b6000601f19601f8301169050919050565b6106da806101f06000396000f3fe608060405234801561001057600080fd5b506004361061004c5760003560e01c806318b11f0514610051578063216b85771461008157806359647984146100b2578063cfb75a13146100e2575b600080fd5b61006b60048036038101906100669190610401565b6100fe565b6040516100789190610592565b60405180910390f35b61009b60048036038101906100969190610401565b61018a565b6040516100a992919061052c565b60405180910390f35b6100cc60048036038101906100c791906103c5565b6101ce565b6040516100d99190610555565b60405180910390f35b6100fc60048036038101906100f7919061042a565b610221565b005b610106610356565b6000808381526020019081526020016000206040518060400160405290816000820160009054906101000a900473ffffffffffffffffffffffffffffffffffffffff1673ffffffffffffffffffffffffffffffffffffffff1673ffffffffffffffffffffffffffffffffffffffff1681526020016001820154815250509050919050565b60006020528060005260406000206000915090508060000160009054906101000a900473ffffffffffffffffffffffffffffffffffffffff16908060010154905082565b60008073ffffffffffffffffffffffffffffffffffffffff168373ffffffffffffffffffffffffffffffffffffffff16141561020957600080fd5b600082141561021757600080fd5b6001905092915050565b8160008085815260200190815260200160002060000160006101000a81548173ffffffffffffffffffffffffffffffffffffffff021916908373ffffffffffffffffffffffffffffffffffffffff1602179055508060008085815260200190815260200160002060010181905550505050565b61032a816040516024016102a89190610570565b6040516020818303038152906040527f41304fac000000000000000000000000000000000000000000000000000000007bffffffffffffffffffffffffffffffffffffffffffffffffffffffff19166020820180517bffffffffffffffffffffffffffffffffffffffffffffffffffffffff838183161783525050505061032d565b50565b60008151905060006a636f6e736f6c652e6c6f679050602083016000808483855afa5050505050565b6040518060400160405280600073ffffffffffffffffffffffffffffffffffffffff168152602001600081525090565b6000813590506103958161065f565b92915050565b6000813590506103aa81610676565b92915050565b6000813590506103bf8161068d565b92915050565b600080604083850312156103d857600080fd5b60006103e685828601610386565b92505060206103f7858286016103b0565b9150509250929050565b60006020828403121561041357600080fd5b60006104218482850161039b565b91505092915050565b60008060006060848603121561043f57600080fd5b600061044d8682870161039b565b935050602061045e86828701610386565b925050604061046f868287016103b0565b9150509250925092565b610482816105c9565b82525050565b610491816105c9565b82525050565b6104a0816105db565b82525050565b60006104b1826105ad565b6104bb81856105b8565b93506104cb81856020860161061b565b6104d48161064e565b840191505092915050565b6040820160008201516104f56000850182610479565b506020820151610508602085018261050e565b50505050565b61051781610611565b82525050565b61052681610611565b82525050565b60006040820190506105416000830185610488565b61054e602083018461051d565b9392505050565b600060208201905061056a6000830184610497565b92915050565b6000602082019050818103600083015261058a81846104a6565b905092915050565b60006040820190506105a760008301846104df565b92915050565b600081519050919050565b600082825260208201905092915050565b60006105d4826105f1565b9050919050565b60008115159050919050565b6000819050919050565b600073ffffffffffffffffffffffffffffffffffffffff82169050919050565b6000819050919050565b60005b8381101561063957808201518184015260208101905061061e565b83811115610648576000848401525b50505050565b6000601f19601f8301169050919050565b610668816105c9565b811461067357600080fd5b50565b61067f816105e7565b811461068a57600080fd5b50565b61069681610611565b81146106a157600080fd5b5056fea2646970667358221220ccdae7403661f1430495ddca42ef3f530d9e2d7c49664de93e8c4e30c399f94764736f6c63430008000033",
  "linkReferences": {},
  "deployedLinkReferences": {}
}