{
  "_format": "hh-sol-artifact-1",
  "contractName": "GatingRules",
  "sourceName": "contracts/GatingRules.sol",
  "abi": [
    {
      "inputs": [],
      "stateMutability": "nonpayable",
      "type": "constructor"
    },
    {
      "inputs": [],
      "name": "addNewTestLock",
      "outputs": [
        {
          "internalType": "uint256",
          "name": "",
          "type": "uint256"
        }
      ],
      "stateMutability": "nonpayable",
      "type": "function"
    },
    {
      "inputs": [
        {
          "components": [
            {
              "internalType": "address",
              "name": "token_contract_address",
              "type": "address"
            }
          ],
          "internalType": "struct GatingRules.RuleERC721",
          "name": "_rule",
          "type": "tuple"
        },
        {
          "internalType": "address",
          "name": "user",
          "type": "address"
        }
      ],
      "name": "checkRuleERC721",
      "outputs": [
        {
          "internalType": "bool",
          "name": "",
          "type": "bool"
        }
      ],
      "stateMutability": "nonpayable",
      "type": "function"
    },
    {
      "inputs": [
        {
          "internalType": "string",
          "name": "dest_url",
          "type": "string"
        },
        {
          "components": [
            {
              "internalType": "address",
              "name": "token_contract_address",
              "type": "address"
            }
          ],
          "internalType": "struct GatingRules.RuleERC721[]",
          "name": "new_rules",
          "type": "tuple[]"
        }
      ],
      "name": "createLock",
      "outputs": [
        {
          "internalType": "uint256",
          "name": "",
          "type": "uint256"
        }
      ],
      "stateMutability": "nonpayable",
      "type": "function"
    },
    {
      "inputs": [],
      "name": "fetchAllLockIds",
      "outputs": [
        {
          "internalType": "uint256[]",
          "name": "",
          "type": "uint256[]"
        }
      ],
      "stateMutability": "view",
      "type": "function"
    },
    {
      "inputs": [],
      "name": "fff",
      "outputs": [
        {
          "internalType": "uint256",
          "name": "",
          "type": "uint256"
        }
      ],
      "stateMutability": "nonpayable",
      "type": "function"
    },
    {
      "inputs": [
        {
          "internalType": "address",
          "name": "user",
          "type": "address"
        },
        {
          "internalType": "uint256",
          "name": "lockID",
          "type": "uint256"
        }
      ],
      "name": "isValid",
      "outputs": [
        {
          "internalType": "bool",
          "name": "",
          "type": "bool"
        },
        {
          "internalType": "string",
          "name": "",
          "type": "string"
        }
      ],
      "stateMutability": "nonpayable",
      "type": "function"
    },
    {
      "inputs": [
        {
          "internalType": "uint256",
          "name": "",
          "type": "uint256"
        }
      ],
      "name": "lockIds",
      "outputs": [
        {
          "internalType": "uint256",
          "name": "",
          "type": "uint256"
        }
      ],
      "stateMutability": "view",
      "type": "function"
    },
    {
      "inputs": [
        {
          "internalType": "uint256",
          "name": "",
          "type": "uint256"
        },
        {
          "internalType": "uint256",
          "name": "",
          "type": "uint256"
        }
      ],
      "name": "lockToRules",
      "outputs": [
        {
          "internalType": "address",
          "name": "token_contract_address",
          "type": "address"
        }
      ],
      "stateMutability": "view",
      "type": "function"
    },
    {
      "inputs": [
        {
          "internalType": "uint256",
          "name": "",
          "type": "uint256"
        }
      ],
      "name": "lockToUrl",
      "outputs": [
        {
          "internalType": "string",
          "name": "",
          "type": "string"
        }
      ],
      "stateMutability": "view",
      "type": "function"
    }
  ],
  "bytecode": "0x608060405260016000553480156200001657600080fd5b50620000626040518060400160405280600e81526020017f596f20696d207475726e742075700000000000000000000000000000000000008152506200006860201b620009aa1760201c565b620001fc565b62000108816040516024016200007f919062000175565b6040516020818303038152906040527f41304fac000000000000000000000000000000000000000000000000000000007bffffffffffffffffffffffffffffffffffffffffffffffffffffffff19166020820180517bffffffffffffffffffffffffffffffffffffffffffffffffffffffff83818316178352505050506200010b60201b60201c565b50565b60008151905060006a636f6e736f6c652e6c6f679050602083016000808483855afa5050505050565b6000620001418262000199565b6200014d8185620001a4565b93506200015f818560208601620001b5565b6200016a81620001eb565b840191505092915050565b6000602082019050818103600083015262000191818462000134565b905092915050565b600081519050919050565b600082825260208201905092915050565b60005b83811015620001d5578082015181840152602081019050620001b8565b83811115620001e5576000848401525b50505050565b6000601f19601f8301169050919050565b61150d806200020c6000396000f3fe608060405234801561001057600080fd5b50600436106100935760003560e01c80635fb4ed2a116100665780635fb4ed2a14610147578063aa7c964414610165578063ade3323514610195578063b835840c146101c5578063b8a1aa0a146101e357610093565b8063389be4421461009857806359647984146100c85780635c307755146100f95780635f8738df14610117575b600080fd5b6100b260048036038101906100ad9190610f82565b610213565b6040516100bf91906110a9565b60405180910390f35b6100e260048036038101906100dd9190610e75565b61026a565b6040516100f0929190611101565b60405180910390f35b610101610468565b60405161010e91906110c4565b60405180910390f35b610131600480360381019061012c9190610eb1565b6104fe565b60405161013e91906111b3565b60405180910390f35b61014f610795565b60405161015c91906111b3565b60405180910390f35b61017f600480360381019061017a9190610f59565b6107dc565b60405161018c91906111b3565b60405180910390f35b6101af60048036038101906101aa9190610f1d565b610800565b6040516101bc91906110e6565b60405180910390f35b6101cd61080c565b6040516101da91906111b3565b60405180910390f35b6101fd60048036038101906101f89190610f59565b61090a565b60405161020a9190611131565b60405180910390f35b6001602052816000526040600020818154811061022f57600080fd5b90600052602060002001600091509150508060000160009054906101000a900473ffffffffffffffffffffffffffffffffffffffff16905081565b60006060600073ffffffffffffffffffffffffffffffffffffffff168473ffffffffffffffffffffffffffffffffffffffff1614156102a857600080fd5b60008314156102b657600080fd5b600060016000858152602001908152602001600020805480602002602001604051908101604052809291908181526020016000905b8282101561036f578382906000526020600020016040518060200160405290816000820160009054906101000a900473ffffffffffffffffffffffffffffffffffffffff1673ffffffffffffffffffffffffffffffffffffffff1673ffffffffffffffffffffffffffffffffffffffff1681525050815260200190600101906102eb565b50505050905060005b81518110156104495760008282815181106103bc577f4e487b7100000000000000000000000000000000000000000000000000000000600052603260045260246000fd5b602002602001015190506104096040518060400160405280601e81526020017f72756c652e746f6b656e5f636f6e74726163745f61646472657373203d2000008152508260000151610a43565b6104138188610800565b6104355760006040518060200160405280600081525094509450505050610461565b508080610441906113c2565b915050610378565b50600061045585610adf565b90506001819350935050505b9250929050565b60606104a86040518060400160405280601581526020017f4665746368696e6720616c6c206c6f636b2069647300000000000000000000008152506109aa565b60038054806020026020016040519081016040528092919081815260200182805480156104f457602002820191906000526020600020905b8154815260200190600101908083116104e0575b5050505050905090565b600061053e6040518060400160405280600d81526020017f4372656174696e67206c6f636b000000000000000000000000000000000000008152506109aa565b60008351101561054d57600080fd5b60008251101561055c57600080fd5b6000805490506000604051806020016040528073111111111111111111111111111111111111111173ffffffffffffffffffffffffffffffffffffffff1681525090506000604051806020016040528073222222222222222222222222222222222222222273ffffffffffffffffffffffffffffffffffffffff16815250905060016000848152602001908152602001600020829080600181540180825580915050600190039060005260206000200160009091909190915060008201518160000160006101000a81548173ffffffffffffffffffffffffffffffffffffffff021916908373ffffffffffffffffffffffffffffffffffffffff160217905550505060016000848152602001908152602001600020819080600181540180825580915050600190039060005260206000200160009091909190915060008201518160000160006101000a81548173ffffffffffffffffffffffffffffffffffffffff021916908373ffffffffffffffffffffffffffffffffffffffff160217905550505085600260008581526020019081526020016000209080519060200190610707929190610c49565b5060038390806001815401808255809150506001900390600052602060002001600090919091909150556107706040518060400160405280601a81526020017f63726561746564206e6577206c6f636b20776974682069643a2000000000000081525084610b84565b600160008082825461078291906112b0565b9250508190555082935050505092915050565b60006107d56040518060400160405280600381526020017f66666600000000000000000000000000000000000000000000000000000000008152506109aa565b6000905090565b600381815481106107ec57600080fd5b906000526020600020016000915090505481565b60006001905092915050565b600061084c6040518060400160405280601481526020017f416464696e67206e65772074657374206c6f636b0000000000000000000000008152506109aa565b6109056040518060400160405280601281526020017f68747470733a2f2f676f6f676c652e636f6d0000000000000000000000000000815250600067ffffffffffffffff8111156108c6577f4e487b7100000000000000000000000000000000000000000000000000000000600052604160045260246000fd5b6040519080825280602002602001820160405280156108ff57816020015b6108ec610ccf565b8152602001906001900390816108e45790505b506104fe565b905090565b6002602052806000526040600020600091509050805461092990611390565b80601f016020809104026020016040519081016040528092919081815260200182805461095590611390565b80156109a25780601f10610977576101008083540402835291602001916109a2565b820191906000526020600020905b81548152906001019060200180831161098557829003601f168201915b505050505081565b610a40816040516024016109be9190611131565b6040516020818303038152906040527f41304fac000000000000000000000000000000000000000000000000000000007bffffffffffffffffffffffffffffffffffffffffffffffffffffffff19166020820180517bffffffffffffffffffffffffffffffffffffffffffffffffffffffff8381831617835250505050610c20565b50565b610adb8282604051602401610a59929190611153565b6040516020818303038152906040527f319af333000000000000000000000000000000000000000000000000000000007bffffffffffffffffffffffffffffffffffffffffffffffffffffffff19166020820180517bffffffffffffffffffffffffffffffffffffffffffffffffffffffff8381831617835250505050610c20565b5050565b6060600260008381526020019081526020016000208054610aff90611390565b80601f0160208091040260200160405190810160405280929190818152602001828054610b2b90611390565b8015610b785780601f10610b4d57610100808354040283529160200191610b78565b820191906000526020600020905b815481529060010190602001808311610b5b57829003601f168201915b50505050509050919050565b610c1c8282604051602401610b9a929190611183565b6040516020818303038152906040527f9710a9d0000000000000000000000000000000000000000000000000000000007bffffffffffffffffffffffffffffffffffffffffffffffffffffffff19166020820180517bffffffffffffffffffffffffffffffffffffffffffffffffffffffff8381831617835250505050610c20565b5050565b60008151905060006a636f6e736f6c652e6c6f679050602083016000808483855afa5050505050565b828054610c5590611390565b90600052602060002090601f016020900481019282610c775760008555610cbe565b82601f10610c9057805160ff1916838001178555610cbe565b82800160010185558215610cbe579182015b82811115610cbd578251825591602001919060010190610ca2565b5b509050610ccb9190610cf8565b5090565b6040518060200160405280600073ffffffffffffffffffffffffffffffffffffffff1681525090565b5b80821115610d11576000816000905550600101610cf9565b5090565b6000610d28610d23846111ff565b6111ce565b90508083825260208201905082856020860282011115610d4757600080fd5b60005b85811015610d775781610d5d8882610e28565b845260208401935060208301925050600181019050610d4a565b5050509392505050565b6000610d94610d8f8461122b565b6111ce565b905082815260208101848484011115610dac57600080fd5b610db784828561134e565b509392505050565b600081359050610dce816114a9565b92915050565b600082601f830112610de557600080fd5b8135610df5848260208601610d15565b91505092915050565b600082601f830112610e0f57600080fd5b8135610e1f848260208601610d81565b91505092915050565b600060208284031215610e3a57600080fd5b610e4460206111ce565b90506000610e5484828501610dbf565b60008301525092915050565b600081359050610e6f816114c0565b92915050565b60008060408385031215610e8857600080fd5b6000610e9685828601610dbf565b9250506020610ea785828601610e60565b9150509250929050565b60008060408385031215610ec457600080fd5b600083013567ffffffffffffffff811115610ede57600080fd5b610eea85828601610dfe565b925050602083013567ffffffffffffffff811115610f0757600080fd5b610f1385828601610dd4565b9150509250929050565b60008060408385031215610f3057600080fd5b6000610f3e85828601610e28565b9250506020610f4f85828601610dbf565b9150509250929050565b600060208284031215610f6b57600080fd5b6000610f7984828501610e60565b91505092915050565b60008060408385031215610f9557600080fd5b6000610fa385828601610e60565b9250506020610fb485828601610e60565b9150509250929050565b6000610fca838361108b565b60208301905092915050565b610fdf81611306565b82525050565b6000610ff08261126b565b610ffa818561128e565b93506110058361125b565b8060005b8381101561103657815161101d8882610fbe565b975061102883611281565b925050600181019050611009565b5085935050505092915050565b61104c81611318565b82525050565b600061105d82611276565b611067818561129f565b935061107781856020860161135d565b61108081611498565b840191505092915050565b61109481611344565b82525050565b6110a381611344565b82525050565b60006020820190506110be6000830184610fd6565b92915050565b600060208201905081810360008301526110de8184610fe5565b905092915050565b60006020820190506110fb6000830184611043565b92915050565b60006040820190506111166000830185611043565b81810360208301526111288184611052565b90509392505050565b6000602082019050818103600083015261114b8184611052565b905092915050565b6000604082019050818103600083015261116d8185611052565b905061117c6020830184610fd6565b9392505050565b6000604082019050818103600083015261119d8185611052565b90506111ac602083018461109a565b9392505050565b60006020820190506111c8600083018461109a565b92915050565b6000604051905081810181811067ffffffffffffffff821117156111f5576111f4611469565b5b8060405250919050565b600067ffffffffffffffff82111561121a57611219611469565b5b602082029050602081019050919050565b600067ffffffffffffffff82111561124657611245611469565b5b601f19601f8301169050602081019050919050565b6000819050602082019050919050565b600081519050919050565b600081519050919050565b6000602082019050919050565b600082825260208201905092915050565b600082825260208201905092915050565b60006112bb82611344565b91506112c683611344565b9250827fffffffffffffffffffffffffffffffffffffffffffffffffffffffffffffffff038211156112fb576112fa61140b565b5b828201905092915050565b600061131182611324565b9050919050565b60008115159050919050565b600073ffffffffffffffffffffffffffffffffffffffff82169050919050565b6000819050919050565b82818337600083830152505050565b60005b8381101561137b578082015181840152602081019050611360565b8381111561138a576000848401525b50505050565b600060028204905060018216806113a857607f821691505b602082108114156113bc576113bb61143a565b5b50919050565b60006113cd82611344565b91507fffffffffffffffffffffffffffffffffffffffffffffffffffffffffffffffff821415611400576113ff61140b565b5b600182019050919050565b7f4e487b7100000000000000000000000000000000000000000000000000000000600052601160045260246000fd5b7f4e487b7100000000000000000000000000000000000000000000000000000000600052602260045260246000fd5b7f4e487b7100000000000000000000000000000000000000000000000000000000600052604160045260246000fd5b6000601f19601f8301169050919050565b6114b281611306565b81146114bd57600080fd5b50565b6114c981611344565b81146114d457600080fd5b5056fea2646970667358221220585181ed99e6e8f96fd24404704baee92ad65647ff23a99d9fe9faf5ad9f5fa464736f6c63430008000033",
  "linkReferences": {},
  "deployedLinkReferences": {}
}