{
  "_format": "hh-sol-artifact-1",
  "contractName": "GatingRules",
  "sourceName": "contracts/GatingRules.sol",
  "abi": [
    {
      "inputs": [],
      "stateMutability": "nonpayable",
      "type": "constructor"
    },
    {
      "anonymous": false,
      "inputs": [
        {
          "indexed": false,
          "internalType": "address",
          "name": "user",
          "type": "address"
        },
        {
          "indexed": false,
          "internalType": "address",
          "name": "token_contract_address",
          "type": "address"
        },
        {
          "indexed": false,
          "internalType": "bool",
          "name": "result",
          "type": "bool"
        }
      ],
      "name": "ruleCheckResult",
      "type": "event"
    },
    {
      "inputs": [
        {
          "components": [
            {
              "internalType": "address",
              "name": "token_contract_address",
              "type": "address"
            }
          ],
          "internalType": "struct GatingRules.RuleERC721",
          "name": "_rule",
          "type": "tuple"
        },
        {
          "internalType": "address",
          "name": "user",
          "type": "address"
        }
      ],
      "name": "checkRuleErc721",
      "outputs": [
        {
          "internalType": "bool",
          "name": "",
          "type": "bool"
        }
      ],
      "stateMutability": "payable",
      "type": "function"
    },
    {
      "inputs": [
        {
          "internalType": "string",
          "name": "dest_url",
          "type": "string"
        },
        {
          "components": [
            {
              "internalType": "address",
              "name": "token_contract_address",
              "type": "address"
            }
          ],
          "internalType": "struct GatingRules.RuleERC721[]",
          "name": "new_rules",
          "type": "tuple[]"
        }
      ],
      "name": "createLock",
      "outputs": [
        {
          "internalType": "uint256",
          "name": "",
          "type": "uint256"
        }
      ],
      "stateMutability": "payable",
      "type": "function"
    },
    {
      "inputs": [],
      "name": "fetchAllLockIds",
      "outputs": [
        {
          "internalType": "uint256[]",
          "name": "",
          "type": "uint256[]"
        }
      ],
      "stateMutability": "view",
      "type": "function"
    },
    {
      "inputs": [],
      "name": "fetchAllRules",
      "outputs": [
        {
          "internalType": "address[]",
          "name": "",
          "type": "address[]"
        }
      ],
      "stateMutability": "view",
      "type": "function"
    },
    {
      "inputs": [
        {
          "internalType": "address",
          "name": "contractAddress",
          "type": "address"
        },
        {
          "internalType": "address",
          "name": "user",
          "type": "address"
        }
      ],
      "name": "getErc721Balance",
      "outputs": [
        {
          "internalType": "uint256",
          "name": "",
          "type": "uint256"
        }
      ],
      "stateMutability": "view",
      "type": "function"
    },
    {
      "inputs": [],
      "name": "getLockCounter",
      "outputs": [
        {
          "internalType": "uint256",
          "name": "",
          "type": "uint256"
        }
      ],
      "stateMutability": "view",
      "type": "function"
    },
    {
      "inputs": [
        {
          "internalType": "address",
          "name": "user",
          "type": "address"
        },
        {
          "internalType": "uint256",
          "name": "lockID",
          "type": "uint256"
        }
      ],
      "name": "isValid",
      "outputs": [
        {
          "internalType": "bool",
          "name": "",
          "type": "bool"
        },
        {
          "internalType": "string",
          "name": "",
          "type": "string"
        }
      ],
      "stateMutability": "payable",
      "type": "function"
    },
    {
      "inputs": [
        {
          "internalType": "uint256",
          "name": "",
          "type": "uint256"
        }
      ],
      "name": "lockIds",
      "outputs": [
        {
          "internalType": "uint256",
          "name": "",
          "type": "uint256"
        }
      ],
      "stateMutability": "view",
      "type": "function"
    },
    {
      "inputs": [
        {
          "internalType": "uint256",
          "name": "",
          "type": "uint256"
        },
        {
          "internalType": "uint256",
          "name": "",
          "type": "uint256"
        }
      ],
      "name": "lockToRules",
      "outputs": [
        {
          "internalType": "address",
          "name": "token_contract_address",
          "type": "address"
        }
      ],
      "stateMutability": "view",
      "type": "function"
    },
    {
      "inputs": [
        {
          "internalType": "uint256",
          "name": "",
          "type": "uint256"
        }
      ],
      "name": "lockToUrl",
      "outputs": [
        {
          "internalType": "string",
          "name": "",
          "type": "string"
        }
      ],
      "stateMutability": "view",
      "type": "function"
    }
  ],
  "bytecode": "0x608060405260016000553480156200001657600080fd5b50620000626040518060400160405280600e81526020017f596f20696d207475726e742075700000000000000000000000000000000000008152506200006860201b62000c621760201c565b620001fc565b62000108816040516024016200007f919062000175565b6040516020818303038152906040527f41304fac000000000000000000000000000000000000000000000000000000007bffffffffffffffffffffffffffffffffffffffffffffffffffffffff19166020820180517bffffffffffffffffffffffffffffffffffffffffffffffffffffffff83818316178352505050506200010b60201b60201c565b50565b60008151905060006a636f6e736f6c652e6c6f679050602083016000808483855afa5050505050565b6000620001418262000199565b6200014d8185620001a4565b93506200015f818560208601620001b5565b6200016a81620001eb565b840191505092915050565b6000602082019050818103600083015262000191818462000134565b905092915050565b600081519050919050565b600082825260208201905092915050565b60005b83811015620001d5578082015181840152602081019050620001b8565b83811115620001e5576000848401525b50505050565b6000601f19601f8301169050919050565b611947806200020c6000396000f3fe6080604052600436106100915760003560e01c80635f8738df116100595780635f8738df1461019c57806360e2120c146101cc578063850d7cc9146101f7578063aa7c964414610222578063b8a1aa0a1461025f57610091565b806301cda90314610096578063254f387c146100c6578063389be4421461010357806359647984146101405780635c30775514610171575b600080fd5b6100b060048036038101906100ab9190611161565b61029c565b6040516100bd91906114d7565b60405180910390f35b3480156100d257600080fd5b506100ed60048036038101906100e8919061107d565b610302565b6040516100fa91906115b4565b60405180910390f35b34801561010f57600080fd5b5061012a600480360381019061012591906111ef565b6103a0565b6040516101379190611441565b60405180910390f35b61015a600480360381019061015591906110b9565b6103f7565b6040516101689291906114f2565b60405180910390f35b34801561017d57600080fd5b5061018661066e565b60405161019391906114b5565b60405180910390f35b6101b660048036038101906101b191906110f5565b610704565b6040516101c391906115b4565b60405180910390f35b3480156101d857600080fd5b506101e16108fc565b6040516101ee9190611493565b60405180910390f35b34801561020357600080fd5b5061020c610b95565b60405161021991906115b4565b60405180910390f35b34801561022e57600080fd5b506102496004803603810190610244919061119d565b610b9e565b60405161025691906115b4565b60405180910390f35b34801561026b57600080fd5b506102866004803603810190610281919061119d565b610bc2565b6040516102939190611522565b60405180910390f35b6000808360000151905060006102b28285610302565b9050600080821190507fd535510dfe98415ee8fe97891147c822a4bf55576d63f2c7dd6b13167b0168c68584836040516102ee9392919061145c565b60405180910390a180935050505092915050565b60008083905060008173ffffffffffffffffffffffffffffffffffffffff166370a08231856040518263ffffffff1660e01b81526004016103439190611441565b60206040518083038186803b15801561035b57600080fd5b505afa15801561036f573d6000803e3d6000fd5b505050506040513d601f19601f8201168201806040525081019061039391906111c6565b9050809250505092915050565b600160205281600052604060002081815481106103bc57600080fd5b90600052602060002001600091509150508060000160009054906101000a900473ffffffffffffffffffffffffffffffffffffffff16905081565b60006060600073ffffffffffffffffffffffffffffffffffffffff168473ffffffffffffffffffffffffffffffffffffffff16141561046b576040517f08c379a000000000000000000000000000000000000000000000000000000000815260040161046290611574565b60405180910390fd5b6000831161047857600080fd5b60005483106104bc576040517f08c379a00000000000000000000000000000000000000000000000000000000081526004016104b390611594565b60405180910390fd5b600060016000858152602001908152602001600020805480602002602001604051908101604052809291908181526020016000905b82821015610575578382906000526020600020016040518060200160405290816000820160009054906101000a900473ffffffffffffffffffffffffffffffffffffffff1673ffffffffffffffffffffffffffffffffffffffff1673ffffffffffffffffffffffffffffffffffffffff1681525050815260200190600101906104f1565b50505050905060005b815181101561064f5760008282815181106105c2577f4e487b7100000000000000000000000000000000000000000000000000000000600052603260045260246000fd5b6020026020010151905061060f6040518060400160405280601e81526020017f72756c652e746f6b656e5f636f6e74726163745f61646472657373203d2000008152508260000151610cfb565b610619818861029c565b61063b5760006040518060200160405280600081525094509450505050610667565b508080610647906117fc565b91505061057e565b50600061065b85610d97565b90506001819350935050505b9250929050565b60606106ae6040518060400160405280601581526020017f4665746368696e6720616c6c206c6f636b206964730000000000000000000000815250610c62565b60038054806020026020016040519081016040528092919081815260200182805480156106fa57602002820191906000526020600020905b8154815260200190600101908083116106e6575b5050505050905090565b60006107446040518060400160405280600d81526020017f4372656174696e67206c6f636b00000000000000000000000000000000000000815250610c62565b60008351101561075357600080fd5b60008251101561076257600080fd5b60008054905060005b835181101561084957600160008381526020019081526020016000208482815181106107c0577f4e487b7100000000000000000000000000000000000000000000000000000000600052603260045260246000fd5b60200260200101519080600181540180825580915050600190039060005260206000200160009091909190915060008201518160000160006101000a81548173ffffffffffffffffffffffffffffffffffffffff021916908373ffffffffffffffffffffffffffffffffffffffff16021790555050508080610841906117fc565b91505061076b565b5083600260008381526020019081526020016000209080519060200190610871929190610e65565b5060038190806001815401808255809150506001900390600052602060002001600090919091909150556108d96040518060400160405280601a81526020017f63726561746564206e6577206c6f636b20776974682069643a20000000000000815250610c62565b60016000808282546108eb91906116ea565b925050819055508091505092915050565b60606000600a67ffffffffffffffff811115610941577f4e487b7100000000000000000000000000000000000000000000000000000000600052604160045260246000fd5b60405190808252806020026020018201604052801561096f5781602001602082028036833780820191505090505b5090506000805b600380549050811015610b8c576000600382815481106109bf577f4e487b7100000000000000000000000000000000000000000000000000000000600052603260045260246000fd5b90600052602060002001549050600060016000838152602001908152602001600020805480602002602001604051908101604052809291908181526020016000905b82821015610a85578382906000526020600020016040518060200160405290816000820160009054906101000a900473ffffffffffffffffffffffffffffffffffffffff1673ffffffffffffffffffffffffffffffffffffffff1673ffffffffffffffffffffffffffffffffffffffff168152505081526020019060010190610a01565b50505050905060005b8151811015610b76576000828281518110610ad2577f4e487b7100000000000000000000000000000000000000000000000000000000600052603260045260246000fd5b602002602001015190508060000151878781518110610b1a577f4e487b7100000000000000000000000000000000000000000000000000000000600052603260045260246000fd5b602002602001019073ffffffffffffffffffffffffffffffffffffffff16908173ffffffffffffffffffffffffffffffffffffffff16815250508580610b5f906117fc565b965050508080610b6e906117fc565b915050610a8e565b5050508080610b84906117fc565b915050610976565b50819250505090565b60008054905090565b60038181548110610bae57600080fd5b906000526020600020016000915090505481565b60026020528060005260406000206000915090508054610be1906117ca565b80601f0160208091040260200160405190810160405280929190818152602001828054610c0d906117ca565b8015610c5a5780601f10610c2f57610100808354040283529160200191610c5a565b820191906000526020600020905b815481529060010190602001808311610c3d57829003601f168201915b505050505081565b610cf881604051602401610c769190611522565b6040516020818303038152906040527f41304fac000000000000000000000000000000000000000000000000000000007bffffffffffffffffffffffffffffffffffffffffffffffffffffffff19166020820180517bffffffffffffffffffffffffffffffffffffffffffffffffffffffff8381831617835250505050610e3c565b50565b610d938282604051602401610d11929190611544565b6040516020818303038152906040527f319af333000000000000000000000000000000000000000000000000000000007bffffffffffffffffffffffffffffffffffffffffffffffffffffffff19166020820180517bffffffffffffffffffffffffffffffffffffffffffffffffffffffff8381831617835250505050610e3c565b5050565b6060600260008381526020019081526020016000208054610db7906117ca565b80601f0160208091040260200160405190810160405280929190818152602001828054610de3906117ca565b8015610e305780601f10610e0557610100808354040283529160200191610e30565b820191906000526020600020905b815481529060010190602001808311610e1357829003601f168201915b50505050509050919050565b60008151905060006a636f6e736f6c652e6c6f679050602083016000808483855afa5050505050565b828054610e71906117ca565b90600052602060002090601f016020900481019282610e935760008555610eda565b82601f10610eac57805160ff1916838001178555610eda565b82800160010185558215610eda579182015b82811115610ed9578251825591602001919060010190610ebe565b5b509050610ee79190610eeb565b5090565b5b80821115610f04576000816000905550600101610eec565b5090565b6000610f1b610f1684611600565b6115cf565b90508083825260208201905082856020860282011115610f3a57600080fd5b60005b85811015610f6a5781610f50888261101b565b845260208401935060208301925050600181019050610f3d565b5050509392505050565b6000610f87610f828461162c565b6115cf565b905082815260208101848484011115610f9f57600080fd5b610faa848285611788565b509392505050565b600081359050610fc1816118e3565b92915050565b600082601f830112610fd857600080fd5b8135610fe8848260208601610f08565b91505092915050565b600082601f83011261100257600080fd5b8135611012848260208601610f74565b91505092915050565b60006020828403121561102d57600080fd5b61103760206115cf565b9050600061104784828501610fb2565b60008301525092915050565b600081359050611062816118fa565b92915050565b600081519050611077816118fa565b92915050565b6000806040838503121561109057600080fd5b600061109e85828601610fb2565b92505060206110af85828601610fb2565b9150509250929050565b600080604083850312156110cc57600080fd5b60006110da85828601610fb2565b92505060206110eb85828601611053565b9150509250929050565b6000806040838503121561110857600080fd5b600083013567ffffffffffffffff81111561112257600080fd5b61112e85828601610ff1565b925050602083013567ffffffffffffffff81111561114b57600080fd5b61115785828601610fc7565b9150509250929050565b6000806040838503121561117457600080fd5b60006111828582860161101b565b925050602061119385828601610fb2565b9150509250929050565b6000602082840312156111af57600080fd5b60006111bd84828501611053565b91505092915050565b6000602082840312156111d857600080fd5b60006111e684828501611068565b91505092915050565b6000806040838503121561120257600080fd5b600061121085828601611053565b925050602061122185828601611053565b9150509250929050565b6000611237838361125b565b60208301905092915050565b600061124f8383611423565b60208301905092915050565b61126481611740565b82525050565b61127381611740565b82525050565b60006112848261167c565b61128e81856116b7565b93506112998361165c565b8060005b838110156112ca5781516112b1888261122b565b97506112bc8361169d565b92505060018101905061129d565b5085935050505092915050565b60006112e282611687565b6112ec81856116c8565b93506112f78361166c565b8060005b8381101561132857815161130f8882611243565b975061131a836116aa565b9250506001810190506112fb565b5085935050505092915050565b61133e81611752565b82525050565b600061134f82611692565b61135981856116d9565b9350611369818560208601611797565b611372816118d2565b840191505092915050565b600061138a601e836116d9565b91507f55736572206d757374206e6f74206265206e756c6c20616464726573732100006000830152602082019050919050565b60006113ca6022836116d9565b91507f4c6f636b20776974682074686973204944206e6f74206372656174656420796560008301527f74210000000000000000000000000000000000000000000000000000000000006020830152604082019050919050565b61142c8161177e565b82525050565b61143b8161177e565b82525050565b6000602082019050611456600083018461126a565b92915050565b6000606082019050611471600083018661126a565b61147e602083018561126a565b61148b6040830184611335565b949350505050565b600060208201905081810360008301526114ad8184611279565b905092915050565b600060208201905081810360008301526114cf81846112d7565b905092915050565b60006020820190506114ec6000830184611335565b92915050565b60006040820190506115076000830185611335565b81810360208301526115198184611344565b90509392505050565b6000602082019050818103600083015261153c8184611344565b905092915050565b6000604082019050818103600083015261155e8185611344565b905061156d602083018461126a565b9392505050565b6000602082019050818103600083015261158d8161137d565b9050919050565b600060208201905081810360008301526115ad816113bd565b9050919050565b60006020820190506115c96000830184611432565b92915050565b6000604051905081810181811067ffffffffffffffff821117156115f6576115f56118a3565b5b8060405250919050565b600067ffffffffffffffff82111561161b5761161a6118a3565b5b602082029050602081019050919050565b600067ffffffffffffffff821115611647576116466118a3565b5b601f19601f8301169050602081019050919050565b6000819050602082019050919050565b6000819050602082019050919050565b600081519050919050565b600081519050919050565b600081519050919050565b6000602082019050919050565b6000602082019050919050565b600082825260208201905092915050565b600082825260208201905092915050565b600082825260208201905092915050565b60006116f58261177e565b91506117008361177e565b9250827fffffffffffffffffffffffffffffffffffffffffffffffffffffffffffffffff0382111561173557611734611845565b5b828201905092915050565b600061174b8261175e565b9050919050565b60008115159050919050565b600073ffffffffffffffffffffffffffffffffffffffff82169050919050565b6000819050919050565b82818337600083830152505050565b60005b838110156117b557808201518184015260208101905061179a565b838111156117c4576000848401525b50505050565b600060028204905060018216806117e257607f821691505b602082108114156117f6576117f5611874565b5b50919050565b60006118078261177e565b91507fffffffffffffffffffffffffffffffffffffffffffffffffffffffffffffffff82141561183a57611839611845565b5b600182019050919050565b7f4e487b7100000000000000000000000000000000000000000000000000000000600052601160045260246000fd5b7f4e487b7100000000000000000000000000000000000000000000000000000000600052602260045260246000fd5b7f4e487b7100000000000000000000000000000000000000000000000000000000600052604160045260246000fd5b6000601f19601f8301169050919050565b6118ec81611740565b81146118f757600080fd5b50565b6119038161177e565b811461190e57600080fd5b5056fea2646970667358221220d77f4636330d49c6ce3a51570cd0ea46a4a05b622ae2d7ce34c503d6cd3cf40364736f6c63430008000033",
  "linkReferences": {},
  "deployedLinkReferences": {}
}