{
  "_format": "hh-sol-artifact-1",
  "contractName": "GatingRules",
  "sourceName": "contracts/GatingRules.sol",
  "abi": [
    {
      "inputs": [],
      "stateMutability": "nonpayable",
      "type": "constructor"
    },
    {
      "inputs": [
        {
          "components": [
            {
              "internalType": "address",
              "name": "token_contract_address",
              "type": "address"
            }
          ],
          "internalType": "struct GatingRules.RuleERC721",
          "name": "_rule",
          "type": "tuple"
        },
        {
          "internalType": "address",
          "name": "user",
          "type": "address"
        }
      ],
      "name": "checkRuleErc721",
      "outputs": [
        {
          "internalType": "bool",
          "name": "",
          "type": "bool"
        }
      ],
      "stateMutability": "view",
      "type": "function"
    },
    {
      "inputs": [
        {
          "internalType": "string",
          "name": "dest_url",
          "type": "string"
        },
        {
          "components": [
            {
              "internalType": "address",
              "name": "token_contract_address",
              "type": "address"
            }
          ],
          "internalType": "struct GatingRules.RuleERC721[]",
          "name": "new_rules",
          "type": "tuple[]"
        }
      ],
      "name": "createLock",
      "outputs": [
        {
          "internalType": "uint256",
          "name": "",
          "type": "uint256"
        }
      ],
      "stateMutability": "nonpayable",
      "type": "function"
    },
    {
      "inputs": [],
      "name": "fetchAllLockIds",
      "outputs": [
        {
          "internalType": "uint256[]",
          "name": "",
          "type": "uint256[]"
        }
      ],
      "stateMutability": "view",
      "type": "function"
    },
    {
      "inputs": [],
      "name": "fetchAllRules",
      "outputs": [
        {
          "internalType": "address[]",
          "name": "",
          "type": "address[]"
        }
      ],
      "stateMutability": "view",
      "type": "function"
    },
    {
      "inputs": [
        {
          "internalType": "address",
          "name": "contractAddress",
          "type": "address"
        },
        {
          "internalType": "address",
          "name": "user",
          "type": "address"
        }
      ],
      "name": "getErc721Balance",
      "outputs": [
        {
          "internalType": "uint256",
          "name": "",
          "type": "uint256"
        }
      ],
      "stateMutability": "view",
      "type": "function"
    },
    {
      "inputs": [
        {
          "internalType": "address",
          "name": "user",
          "type": "address"
        },
        {
          "internalType": "uint256",
          "name": "lockID",
          "type": "uint256"
        }
      ],
      "name": "isValid",
      "outputs": [
        {
          "internalType": "bool",
          "name": "",
          "type": "bool"
        },
        {
          "internalType": "string",
          "name": "",
          "type": "string"
        }
      ],
      "stateMutability": "view",
      "type": "function"
    },
    {
      "inputs": [
        {
          "internalType": "uint256",
          "name": "",
          "type": "uint256"
        }
      ],
      "name": "lockIds",
      "outputs": [
        {
          "internalType": "uint256",
          "name": "",
          "type": "uint256"
        }
      ],
      "stateMutability": "view",
      "type": "function"
    },
    {
      "inputs": [
        {
          "internalType": "uint256",
          "name": "",
          "type": "uint256"
        },
        {
          "internalType": "uint256",
          "name": "",
          "type": "uint256"
        }
      ],
      "name": "lockToRules",
      "outputs": [
        {
          "internalType": "address",
          "name": "token_contract_address",
          "type": "address"
        }
      ],
      "stateMutability": "view",
      "type": "function"
    },
    {
      "inputs": [
        {
          "internalType": "uint256",
          "name": "",
          "type": "uint256"
        }
      ],
      "name": "lockToUrl",
      "outputs": [
        {
          "internalType": "string",
          "name": "",
          "type": "string"
        }
      ],
      "stateMutability": "view",
      "type": "function"
    }
  ],
  "bytecode": "0x608060405260016000553480156200001657600080fd5b50620000626040518060400160405280600e81526020017f596f20696d207475726e742075700000000000000000000000000000000000008152506200006860201b62000b291760201c565b620001fc565b62000108816040516024016200007f919062000175565b6040516020818303038152906040527f41304fac000000000000000000000000000000000000000000000000000000007bffffffffffffffffffffffffffffffffffffffffffffffffffffffff19166020820180517bffffffffffffffffffffffffffffffffffffffffffffffffffffffff83818316178352505050506200010b60201b60201c565b50565b60008151905060006a636f6e736f6c652e6c6f679050602083016000808483855afa5050505050565b6000620001418262000199565b6200014d8185620001a4565b93506200015f818560208601620001b5565b6200016a81620001eb565b840191505092915050565b6000602082019050818103600083015262000191818462000134565b905092915050565b600081519050919050565b600082825260208201905092915050565b60005b83811015620001d5578082015181840152602081019050620001b8565b83811115620001e5576000848401525b50505050565b6000601f19601f8301169050919050565b6116f1806200020c6000396000f3fe608060405234801561001057600080fd5b50600436106100935760003560e01c80635c307755116100665780635c307755146101595780635f8738df1461017757806360e2120c146101a7578063aa7c9644146101c5578063b8a1aa0a146101f557610093565b806301cda90314610098578063254f387c146100c8578063389be442146100f85780635964798414610128575b600080fd5b6100b260048036038101906100ad9190611028565b610225565b6040516100bf91906112c1565b60405180910390f35b6100e260048036038101906100dd9190610f44565b61024b565b6040516100ef919061135e565b60405180910390f35b610112600480360381019061010d91906110b6565b6102e9565b60405161011f9190611262565b60405180910390f35b610142600480360381019061013d9190610f80565b610340565b6040516101509291906112dc565b60405180910390f35b61016161053e565b60405161016e919061129f565b60405180910390f35b610191600480360381019061018c9190610fbc565b6105d4565b60405161019e919061135e565b60405180910390f35b6101af6107cc565b6040516101bc919061127d565b60405180910390f35b6101df60048036038101906101da9190611064565b610a65565b6040516101ec919061135e565b60405180910390f35b61020f600480360381019061020a9190611064565b610a89565b60405161021c919061130c565b60405180910390f35b60008083600001519050600061023b828561024b565b9050600081119250505092915050565b60008083905060008173ffffffffffffffffffffffffffffffffffffffff166370a08231856040518263ffffffff1660e01b815260040161028c9190611262565b60206040518083038186803b1580156102a457600080fd5b505afa1580156102b8573d6000803e3d6000fd5b505050506040513d601f19601f820116820180604052508101906102dc919061108d565b9050809250505092915050565b6001602052816000526040600020818154811061030557600080fd5b90600052602060002001600091509150508060000160009054906101000a900473ffffffffffffffffffffffffffffffffffffffff16905081565b60006060600073ffffffffffffffffffffffffffffffffffffffff168473ffffffffffffffffffffffffffffffffffffffff16141561037e57600080fd5b600083141561038c57600080fd5b600060016000858152602001908152602001600020805480602002602001604051908101604052809291908181526020016000905b82821015610445578382906000526020600020016040518060200160405290816000820160009054906101000a900473ffffffffffffffffffffffffffffffffffffffff1673ffffffffffffffffffffffffffffffffffffffff1673ffffffffffffffffffffffffffffffffffffffff1681525050815260200190600101906103c1565b50505050905060005b815181101561051f576000828281518110610492577f4e487b7100000000000000000000000000000000000000000000000000000000600052603260045260246000fd5b602002602001015190506104df6040518060400160405280601e81526020017f72756c652e746f6b656e5f636f6e74726163745f61646472657373203d2000008152508260000151610bc2565b6104e98188610225565b61050b5760006040518060200160405280600081525094509450505050610537565b508080610517906115a6565b91505061044e565b50600061052b85610c5e565b90506001819350935050505b9250929050565b606061057e6040518060400160405280601581526020017f4665746368696e6720616c6c206c6f636b206964730000000000000000000000815250610b29565b60038054806020026020016040519081016040528092919081815260200182805480156105ca57602002820191906000526020600020905b8154815260200190600101908083116105b6575b5050505050905090565b60006106146040518060400160405280600d81526020017f4372656174696e67206c6f636b00000000000000000000000000000000000000815250610b29565b60008351101561062357600080fd5b60008251101561063257600080fd5b60008054905060005b83518110156107195760016000838152602001908152602001600020848281518110610690577f4e487b7100000000000000000000000000000000000000000000000000000000600052603260045260246000fd5b60200260200101519080600181540180825580915050600190039060005260206000200160009091909190915060008201518160000160006101000a81548173ffffffffffffffffffffffffffffffffffffffff021916908373ffffffffffffffffffffffffffffffffffffffff16021790555050508080610711906115a6565b91505061063b565b5083600260008381526020019081526020016000209080519060200190610741929190610d2c565b5060038190806001815401808255809150506001900390600052602060002001600090919091909150556107a96040518060400160405280601a81526020017f63726561746564206e6577206c6f636b20776974682069643a20000000000000815250610b29565b60016000808282546107bb9190611494565b925050819055508091505092915050565b60606000600a67ffffffffffffffff811115610811577f4e487b7100000000000000000000000000000000000000000000000000000000600052604160045260246000fd5b60405190808252806020026020018201604052801561083f5781602001602082028036833780820191505090505b5090506000805b600380549050811015610a5c5760006003828154811061088f577f4e487b7100000000000000000000000000000000000000000000000000000000600052603260045260246000fd5b90600052602060002001549050600060016000838152602001908152602001600020805480602002602001604051908101604052809291908181526020016000905b82821015610955578382906000526020600020016040518060200160405290816000820160009054906101000a900473ffffffffffffffffffffffffffffffffffffffff1673ffffffffffffffffffffffffffffffffffffffff1673ffffffffffffffffffffffffffffffffffffffff1681525050815260200190600101906108d1565b50505050905060005b8151811015610a465760008282815181106109a2577f4e487b7100000000000000000000000000000000000000000000000000000000600052603260045260246000fd5b6020026020010151905080600001518787815181106109ea577f4e487b7100000000000000000000000000000000000000000000000000000000600052603260045260246000fd5b602002602001019073ffffffffffffffffffffffffffffffffffffffff16908173ffffffffffffffffffffffffffffffffffffffff16815250508580610a2f906115a6565b965050508080610a3e906115a6565b91505061095e565b5050508080610a54906115a6565b915050610846565b50819250505090565b60038181548110610a7557600080fd5b906000526020600020016000915090505481565b60026020528060005260406000206000915090508054610aa890611574565b80601f0160208091040260200160405190810160405280929190818152602001828054610ad490611574565b8015610b215780601f10610af657610100808354040283529160200191610b21565b820191906000526020600020905b815481529060010190602001808311610b0457829003601f168201915b505050505081565b610bbf81604051602401610b3d919061130c565b6040516020818303038152906040527f41304fac000000000000000000000000000000000000000000000000000000007bffffffffffffffffffffffffffffffffffffffffffffffffffffffff19166020820180517bffffffffffffffffffffffffffffffffffffffffffffffffffffffff8381831617835250505050610d03565b50565b610c5a8282604051602401610bd892919061132e565b6040516020818303038152906040527f319af333000000000000000000000000000000000000000000000000000000007bffffffffffffffffffffffffffffffffffffffffffffffffffffffff19166020820180517bffffffffffffffffffffffffffffffffffffffffffffffffffffffff8381831617835250505050610d03565b5050565b6060600260008381526020019081526020016000208054610c7e90611574565b80601f0160208091040260200160405190810160405280929190818152602001828054610caa90611574565b8015610cf75780601f10610ccc57610100808354040283529160200191610cf7565b820191906000526020600020905b815481529060010190602001808311610cda57829003601f168201915b50505050509050919050565b60008151905060006a636f6e736f6c652e6c6f679050602083016000808483855afa5050505050565b828054610d3890611574565b90600052602060002090601f016020900481019282610d5a5760008555610da1565b82601f10610d7357805160ff1916838001178555610da1565b82800160010185558215610da1579182015b82811115610da0578251825591602001919060010190610d85565b5b509050610dae9190610db2565b5090565b5b80821115610dcb576000816000905550600101610db3565b5090565b6000610de2610ddd846113aa565b611379565b90508083825260208201905082856020860282011115610e0157600080fd5b60005b85811015610e315781610e178882610ee2565b845260208401935060208301925050600181019050610e04565b5050509392505050565b6000610e4e610e49846113d6565b611379565b905082815260208101848484011115610e6657600080fd5b610e71848285611532565b509392505050565b600081359050610e888161168d565b92915050565b600082601f830112610e9f57600080fd5b8135610eaf848260208601610dcf565b91505092915050565b600082601f830112610ec957600080fd5b8135610ed9848260208601610e3b565b91505092915050565b600060208284031215610ef457600080fd5b610efe6020611379565b90506000610f0e84828501610e79565b60008301525092915050565b600081359050610f29816116a4565b92915050565b600081519050610f3e816116a4565b92915050565b60008060408385031215610f5757600080fd5b6000610f6585828601610e79565b9250506020610f7685828601610e79565b9150509250929050565b60008060408385031215610f9357600080fd5b6000610fa185828601610e79565b9250506020610fb285828601610f1a565b9150509250929050565b60008060408385031215610fcf57600080fd5b600083013567ffffffffffffffff811115610fe957600080fd5b610ff585828601610eb8565b925050602083013567ffffffffffffffff81111561101257600080fd5b61101e85828601610e8e565b9150509250929050565b6000806040838503121561103b57600080fd5b600061104985828601610ee2565b925050602061105a85828601610e79565b9150509250929050565b60006020828403121561107657600080fd5b600061108484828501610f1a565b91505092915050565b60006020828403121561109f57600080fd5b60006110ad84828501610f2f565b91505092915050565b600080604083850312156110c957600080fd5b60006110d785828601610f1a565b92505060206110e885828601610f1a565b9150509250929050565b60006110fe8383611122565b60208301905092915050565b60006111168383611244565b60208301905092915050565b61112b816114ea565b82525050565b61113a816114ea565b82525050565b600061114b82611426565b6111558185611461565b935061116083611406565b8060005b8381101561119157815161117888826110f2565b975061118383611447565b925050600181019050611164565b5085935050505092915050565b60006111a982611431565b6111b38185611472565b93506111be83611416565b8060005b838110156111ef5781516111d6888261110a565b97506111e183611454565b9250506001810190506111c2565b5085935050505092915050565b611205816114fc565b82525050565b60006112168261143c565b6112208185611483565b9350611230818560208601611541565b6112398161167c565b840191505092915050565b61124d81611528565b82525050565b61125c81611528565b82525050565b60006020820190506112776000830184611131565b92915050565b600060208201905081810360008301526112978184611140565b905092915050565b600060208201905081810360008301526112b9818461119e565b905092915050565b60006020820190506112d660008301846111fc565b92915050565b60006040820190506112f160008301856111fc565b8181036020830152611303818461120b565b90509392505050565b60006020820190508181036000830152611326818461120b565b905092915050565b60006040820190508181036000830152611348818561120b565b90506113576020830184611131565b9392505050565b60006020820190506113736000830184611253565b92915050565b6000604051905081810181811067ffffffffffffffff821117156113a05761139f61164d565b5b8060405250919050565b600067ffffffffffffffff8211156113c5576113c461164d565b5b602082029050602081019050919050565b600067ffffffffffffffff8211156113f1576113f061164d565b5b601f19601f8301169050602081019050919050565b6000819050602082019050919050565b6000819050602082019050919050565b600081519050919050565b600081519050919050565b600081519050919050565b6000602082019050919050565b6000602082019050919050565b600082825260208201905092915050565b600082825260208201905092915050565b600082825260208201905092915050565b600061149f82611528565b91506114aa83611528565b9250827fffffffffffffffffffffffffffffffffffffffffffffffffffffffffffffffff038211156114df576114de6115ef565b5b828201905092915050565b60006114f582611508565b9050919050565b60008115159050919050565b600073ffffffffffffffffffffffffffffffffffffffff82169050919050565b6000819050919050565b82818337600083830152505050565b60005b8381101561155f578082015181840152602081019050611544565b8381111561156e576000848401525b50505050565b6000600282049050600182168061158c57607f821691505b602082108114156115a05761159f61161e565b5b50919050565b60006115b182611528565b91507fffffffffffffffffffffffffffffffffffffffffffffffffffffffffffffffff8214156115e4576115e36115ef565b5b600182019050919050565b7f4e487b7100000000000000000000000000000000000000000000000000000000600052601160045260246000fd5b7f4e487b7100000000000000000000000000000000000000000000000000000000600052602260045260246000fd5b7f4e487b7100000000000000000000000000000000000000000000000000000000600052604160045260246000fd5b6000601f19601f8301169050919050565b611696816114ea565b81146116a157600080fd5b50565b6116ad81611528565b81146116b857600080fd5b5056fea264697066735822122024077ac7fe1f8c672e2088ebf4e117015e04810d8169eb0ece85e86eb8ea0ddc64736f6c63430008000033",
  "linkReferences": {},
  "deployedLinkReferences": {}
}