{
  "_format": "hh-sol-artifact-1",
  "contractName": "GatingRules",
  "sourceName": "contracts/GatingRules.sol",
  "abi": [
    {
      "inputs": [],
      "stateMutability": "nonpayable",
      "type": "constructor"
    },
    {
      "inputs": [
        {
          "internalType": "string",
          "name": "dest_url",
          "type": "string"
        },
        {
          "components": [
            {
              "internalType": "address",
              "name": "token_contract_address",
              "type": "address"
            },
            {
              "internalType": "uint256",
              "name": "token_count",
              "type": "uint256"
            }
          ],
          "internalType": "struct GatingRules.Rule[]",
          "name": "new_rules",
          "type": "tuple[]"
        }
      ],
      "name": "createLock",
      "outputs": [],
      "stateMutability": "nonpayable",
      "type": "function"
    },
    {
      "inputs": [
        {
          "internalType": "bytes32",
          "name": "_hash",
          "type": "bytes32"
        }
      ],
      "name": "fetchRule",
      "outputs": [
        {
          "components": [
            {
              "internalType": "address",
              "name": "token_contract_address",
              "type": "address"
            },
            {
              "internalType": "uint256",
              "name": "token_count",
              "type": "uint256"
            }
          ],
          "internalType": "struct GatingRules.Rule",
          "name": "",
          "type": "tuple"
        }
      ],
      "stateMutability": "view",
      "type": "function"
    },
    {
      "inputs": [
        {
          "internalType": "address",
          "name": "user",
          "type": "address"
        },
        {
          "internalType": "uint256",
          "name": "lockID",
          "type": "uint256"
        }
      ],
      "name": "isValid",
      "outputs": [
        {
          "internalType": "bool",
          "name": "",
          "type": "bool"
        }
      ],
      "stateMutability": "pure",
      "type": "function"
    },
    {
      "inputs": [
        {
          "internalType": "bytes32",
          "name": "",
          "type": "bytes32"
        }
      ],
      "name": "rules",
      "outputs": [
        {
          "internalType": "address",
          "name": "token_contract_address",
          "type": "address"
        },
        {
          "internalType": "uint256",
          "name": "token_count",
          "type": "uint256"
        }
      ],
      "stateMutability": "view",
      "type": "function"
    }
  ],
  "bytecode": "0x608060405234801561001057600080fd5b506100596040518060400160405280600e81526020017f596f20696d207475726e7420757000000000000000000000000000000000000081525061005e60201b6102491760201c565b6101e1565b6100fa81604051602401610072919061015f565b6040516020818303038152906040527f41304fac000000000000000000000000000000000000000000000000000000007bffffffffffffffffffffffffffffffffffffffffffffffffffffffff19166020820180517bffffffffffffffffffffffffffffffffffffffffffffffffffffffff83818316178352505050506100fd60201b60201c565b50565b60008151905060006a636f6e736f6c652e6c6f679050602083016000808483855afa5050505050565b600061013182610181565b61013b818561018c565b935061014b81856020860161019d565b610154816101d0565b840191505092915050565b600060208201905081810360008301526101798184610126565b905092915050565b600081519050919050565b600082825260208201905092915050565b60005b838110156101bb5780820151818401526020810190506101a0565b838111156101ca576000848401525b50505050565b6000601f19601f8301169050919050565b610749806101f06000396000f3fe608060405234801561001057600080fd5b506004361061004c5760003560e01c806318b11f0514610051578063216b85771461008157806359647984146100b2578063c7c97b29146100e2575b600080fd5b61006b6004803603810190610066919061044a565b6100fe565b6040516100789190610601565b60405180910390f35b61009b6004803603810190610096919061044a565b61018a565b6040516100a992919061059b565b60405180910390f35b6100cc60048036038101906100c7919061040e565b6101ce565b6040516100d991906105c4565b60405180910390f35b6100fc60048036038101906100f79190610473565b610221565b005b61010661030b565b6000808381526020019081526020016000206040518060400160405290816000820160009054906101000a900473ffffffffffffffffffffffffffffffffffffffff1673ffffffffffffffffffffffffffffffffffffffff1673ffffffffffffffffffffffffffffffffffffffff1681526020016001820154815250509050919050565b60006020528060005260406000206000915090508060000160009054906101000a900473ffffffffffffffffffffffffffffffffffffffff16908060010154905082565b60008073ffffffffffffffffffffffffffffffffffffffff168373ffffffffffffffffffffffffffffffffffffffff16141561020957600080fd5b600082141561021757600080fd5b6001905092915050565b600084849050101561023257600080fd5b600082829050101561024357600080fd5b50505050565b6102df8160405160240161025d91906105df565b6040516020818303038152906040527f41304fac000000000000000000000000000000000000000000000000000000007bffffffffffffffffffffffffffffffffffffffffffffffffffffffff19166020820180517bffffffffffffffffffffffffffffffffffffffffffffffffffffffff83818316178352505050506102e2565b50565b60008151905060006a636f6e736f6c652e6c6f679050602083016000808483855afa5050505050565b6040518060400160405280600073ffffffffffffffffffffffffffffffffffffffff168152602001600081525090565b60008135905061034a816106ce565b92915050565b60008083601f84011261036257600080fd5b8235905067ffffffffffffffff81111561037b57600080fd5b60208301915083604082028301111561039357600080fd5b9250929050565b6000813590506103a9816106e5565b92915050565b60008083601f8401126103c157600080fd5b8235905067ffffffffffffffff8111156103da57600080fd5b6020830191508360018202830111156103f257600080fd5b9250929050565b600081359050610408816106fc565b92915050565b6000806040838503121561042157600080fd5b600061042f8582860161033b565b9250506020610440858286016103f9565b9150509250929050565b60006020828403121561045c57600080fd5b600061046a8482850161039a565b91505092915050565b6000806000806040858703121561048957600080fd5b600085013567ffffffffffffffff8111156104a357600080fd5b6104af878288016103af565b9450945050602085013567ffffffffffffffff8111156104ce57600080fd5b6104da87828801610350565b925092505092959194509250565b6104f181610638565b82525050565b61050081610638565b82525050565b61050f8161064a565b82525050565b60006105208261061c565b61052a8185610627565b935061053a81856020860161068a565b610543816106bd565b840191505092915050565b60408201600082015161056460008501826104e8565b506020820151610577602085018261057d565b50505050565b61058681610680565b82525050565b61059581610680565b82525050565b60006040820190506105b060008301856104f7565b6105bd602083018461058c565b9392505050565b60006020820190506105d96000830184610506565b92915050565b600060208201905081810360008301526105f98184610515565b905092915050565b6000604082019050610616600083018461054e565b92915050565b600081519050919050565b600082825260208201905092915050565b600061064382610660565b9050919050565b60008115159050919050565b6000819050919050565b600073ffffffffffffffffffffffffffffffffffffffff82169050919050565b6000819050919050565b60005b838110156106a857808201518184015260208101905061068d565b838111156106b7576000848401525b50505050565b6000601f19601f8301169050919050565b6106d781610638565b81146106e257600080fd5b50565b6106ee81610656565b81146106f957600080fd5b50565b61070581610680565b811461071057600080fd5b5056fea264697066735822122021d91638054471abc6b875b40d47b21d057ce32612b269ecbd386767ed9c649664736f6c63430008000033",
  "linkReferences": {},
  "deployedLinkReferences": {}
}